{
  "_format": "hh-sol-artifact-1",
  "contractName": "Calend3eth",
  "sourceName": "contracts/Calend3eth.sol",
  "abi": [
    {
      "inputs": [],
      "stateMutability": "nonpayable",
      "type": "constructor"
    },
    {
      "inputs": [
        {
          "internalType": "string",
          "name": "title",
          "type": "string"
        },
        {
          "internalType": "uint256",
          "name": "startTime",
          "type": "uint256"
        },
        {
          "internalType": "uint256",
          "name": "endTime",
          "type": "uint256"
        }
      ],
      "name": "createAppointment",
      "outputs": [],
      "stateMutability": "payable",
      "type": "function"
    },
    {
      "inputs": [],
      "name": "getAppointments",
      "outputs": [
        {
          "components": [
            {
              "internalType": "string",
              "name": "title",
              "type": "string"
            },
            {
              "internalType": "address",
              "name": "attendee",
              "type": "address"
            },
            {
              "internalType": "uint256",
              "name": "startTime",
              "type": "uint256"
            },
            {
              "internalType": "uint256",
              "name": "endTime",
              "type": "uint256"
            },
            {
              "internalType": "uint256",
              "name": "amountPaid",
              "type": "uint256"
            }
          ],
          "internalType": "struct Calend3eth.Appointment[]",
          "name": "",
          "type": "tuple[]"
        }
      ],
      "stateMutability": "view",
      "type": "function"
    },
    {
      "inputs": [],
      "name": "getRate",
      "outputs": [
        {
          "internalType": "uint256",
          "name": "",
          "type": "uint256"
        }
      ],
      "stateMutability": "view",
      "type": "function"
    },
    {
      "inputs": [],
      "name": "owner",
      "outputs": [
        {
          "internalType": "address payable",
          "name": "",
          "type": "address"
        }
      ],
      "stateMutability": "view",
      "type": "function"
    },
    {
      "inputs": [
        {
          "internalType": "uint256",
          "name": "_rate",
          "type": "uint256"
        }
      ],
      "name": "setRate",
      "outputs": [],
      "stateMutability": "nonpayable",
      "type": "function"
    }
  ],
  "bytecode": "0x608060405234801561001057600080fd5b5033600160006101000a81548173ffffffffffffffffffffffffffffffffffffffff021916908373ffffffffffffffffffffffffffffffffffffffff160217905550610e6d806100616000396000f3fe60806040526004361061004a5760003560e01c806334fcf4371461004f57806359c35bdf14610078578063679aefce146100945780638da5cb5b146100bf57806396b80d08146100ea575b600080fd5b34801561005b57600080fd5b5061007660048036038101906100719190610766565b610115565b005b610092600480360381019061008d91906106ff565b6101af565b005b3480156100a057600080fd5b506100a9610406565b6040516100b69190610a41565b60405180910390f35b3480156100cb57600080fd5b506100d461040f565b6040516100e191906109a4565b60405180910390f35b3480156100f657600080fd5b506100ff610435565b60405161010c91906109bf565b60405180910390f35b600160009054906101000a900473ffffffffffffffffffffffffffffffffffffffff1673ffffffffffffffffffffffffffffffffffffffff163373ffffffffffffffffffffffffffffffffffffffff16146101a5576040517f08c379a000000000000000000000000000000000000000000000000000000000815260040161019c90610a21565b60405180910390fd5b8060008190555050565b6101b761059a565b8381600001819052508281604001818152505081816060018181525050600054603c84846101e59190610bae565b6101ef9190610b23565b6101f99190610b54565b81608001818152505033816020019073ffffffffffffffffffffffffffffffffffffffff16908173ffffffffffffffffffffffffffffffffffffffff16815250508060800151341015610281576040517f08c379a0000000000000000000000000000000000000000000000000000000008152600401610278906109e1565b60405180910390fd5b6000600160009054906101000a900473ffffffffffffffffffffffffffffffffffffffff1673ffffffffffffffffffffffffffffffffffffffff16346040516102c99061098f565b60006040518083038185875af1925050503d8060008114610306576040519150601f19603f3d011682016040523d82523d6000602084013e61030b565b606091505b505090508061034f576040517f08c379a000000000000000000000000000000000000000000000000000000000815260040161034690610a01565b60405180910390fd5b600282908060018154018082558091505060019003906000526020600020906005020160009091909190915060008201518160000190805190602001906103979291906105df565b5060208201518160010160006101000a81548173ffffffffffffffffffffffffffffffffffffffff021916908373ffffffffffffffffffffffffffffffffffffffff16021790555060408201518160020155606082015181600301556080820151816004015550505050505050565b60008054905090565b600160009054906101000a900473ffffffffffffffffffffffffffffffffffffffff1681565b60606002805480602002602001604051908101604052809291908181526020016000905b8282101561059157838290600052602060002090600502016040518060a001604052908160008201805461048c90610c72565b80601f01602080910402602001604051908101604052809291908181526020018280546104b890610c72565b80156105055780601f106104da57610100808354040283529160200191610505565b820191906000526020600020905b8154815290600101906020018083116104e857829003601f168201915b505050505081526020016001820160009054906101000a900473ffffffffffffffffffffffffffffffffffffffff1673ffffffffffffffffffffffffffffffffffffffff1673ffffffffffffffffffffffffffffffffffffffff168152602001600282015481526020016003820154815260200160048201548152505081526020019060010190610459565b50505050905090565b6040518060a0016040528060608152602001600073ffffffffffffffffffffffffffffffffffffffff1681526020016000815260200160008152602001600081525090565b8280546105eb90610c72565b90600052602060002090601f01602090048101928261060d5760008555610654565b82601f1061062657805160ff1916838001178555610654565b82800160010185558215610654579182015b82811115610653578251825591602001919060010190610638565b5b5090506106619190610665565b5090565b5b8082111561067e576000816000905550600101610666565b5090565b600061069561069084610a81565b610a5c565b9050828152602081018484840111156106ad57600080fd5b6106b8848285610c30565b509392505050565b600082601f8301126106d157600080fd5b81356106e1848260208601610682565b91505092915050565b6000813590506106f981610e20565b92915050565b60008060006060848603121561071457600080fd5b600084013567ffffffffffffffff81111561072e57600080fd5b61073a868287016106c0565b935050602061074b868287016106ea565b925050604061075c868287016106ea565b9150509250925092565b60006020828403121561077857600080fd5b6000610786848285016106ea565b91505092915050565b600061079b83836108fb565b905092915050565b6107ac81610bf4565b82525050565b6107bb81610be2565b82525050565b60006107cc82610ac2565b6107d68185610ae5565b9350836020820285016107e885610ab2565b8060005b858110156108245784840389528151610805858261078f565b945061081083610ad8565b925060208a019950506001810190506107ec565b50829750879550505050505092915050565b600061084182610acd565b61084b8185610b01565b935061085b818560208601610c3f565b61086481610d91565b840191505092915050565b600061087c601583610b12565b915061088782610da2565b602082019050919050565b600061089f601483610b12565b91506108aa82610dcb565b602082019050919050565b60006108c2600083610af6565b91506108cd82610df4565b600082019050919050565b60006108e5601f83610b12565b91506108f082610df7565b602082019050919050565b600060a08301600083015184820360008601526109188282610836565b915050602083015161092d60208601826107b2565b5060408301516109406040860182610971565b5060608301516109536060860182610971565b5060808301516109666080860182610971565b508091505092915050565b61097a81610c26565b82525050565b61098981610c26565b82525050565b600061099a826108b5565b9150819050919050565b60006020820190506109b960008301846107a3565b92915050565b600060208201905081810360008301526109d981846107c1565b905092915050565b600060208201905081810360008301526109fa8161086f565b9050919050565b60006020820190508181036000830152610a1a81610892565b9050919050565b60006020820190508181036000830152610a3a816108d8565b9050919050565b6000602082019050610a566000830184610980565b92915050565b6000610a66610a77565b9050610a728282610ca4565b919050565b6000604051905090565b600067ffffffffffffffff821115610a9c57610a9b610d62565b5b610aa582610d91565b9050602081019050919050565b6000819050602082019050919050565b600081519050919050565b600081519050919050565b6000602082019050919050565b600082825260208201905092915050565b600081905092915050565b600082825260208201905092915050565b600082825260208201905092915050565b6000610b2e82610c26565b9150610b3983610c26565b925082610b4957610b48610d04565b5b828204905092915050565b6000610b5f82610c26565b9150610b6a83610c26565b9250817fffffffffffffffffffffffffffffffffffffffffffffffffffffffffffffffff0483118215151615610ba357610ba2610cd5565b5b828202905092915050565b6000610bb982610c26565b9150610bc483610c26565b925082821015610bd757610bd6610cd5565b5b828203905092915050565b6000610bed82610c06565b9050919050565b6000610bff82610c06565b9050919050565b600073ffffffffffffffffffffffffffffffffffffffff82169050919050565b6000819050919050565b82818337600083830152505050565b60005b83811015610c5d578082015181840152602081019050610c42565b83811115610c6c576000848401525b50505050565b60006002820490506001821680610c8a57607f821691505b60208210811415610c9e57610c9d610d33565b5b50919050565b610cad82610d91565b810181811067ffffffffffffffff82111715610ccc57610ccb610d62565b5b80604052505050565b7f4e487b7100000000000000000000000000000000000000000000000000000000600052601160045260246000fd5b7f4e487b7100000000000000000000000000000000000000000000000000000000600052601260045260246000fd5b7f4e487b7100000000000000000000000000000000000000000000000000000000600052602260045260246000fd5b7f4e487b7100000000000000000000000000000000000000000000000000000000600052604160045260246000fd5b6000601f19601f8301169050919050565b7f57652072657175697265206d6f72652065746865720000000000000000000000600082015250565b7f4661696c656420746f2073656e64204574686572000000000000000000000000600082015250565b50565b7f4f6e6c7920746865206f776e65722063616e2073657420746865207261746500600082015250565b610e2981610c26565b8114610e3457600080fd5b5056fea264697066735822122042a48e02d199c0dde3288dc42c075a53a498a12326211b95d8d169e6a090ab9d64736f6c63430008040033",
  "linkReferences": {},
  "deployedLinkReferences": {}
}